{
  "_format": "hh-sol-artifact-1",
  "contractName": "NFT",
  "sourceName": "src/backend/contracts/NFT.sol",
  "abi": [
    {
      "inputs": [],
      "stateMutability": "nonpayable",
      "type": "constructor"
    },
    {
      "anonymous": false,
      "inputs": [
        {
          "indexed": true,
          "internalType": "address",
          "name": "owner",
          "type": "address"
        },
        {
          "indexed": true,
          "internalType": "address",
          "name": "approved",
          "type": "address"
        },
        {
          "indexed": true,
          "internalType": "uint256",
          "name": "tokenId",
          "type": "uint256"
        }
      ],
      "name": "Approval",
      "type": "event"
    },
    {
      "anonymous": false,
      "inputs": [
        {
          "indexed": true,
          "internalType": "address",
          "name": "owner",
          "type": "address"
        },
        {
          "indexed": true,
          "internalType": "address",
          "name": "operator",
          "type": "address"
        },
        {
          "indexed": false,
          "internalType": "bool",
          "name": "approved",
          "type": "bool"
        }
      ],
      "name": "ApprovalForAll",
      "type": "event"
    },
    {
      "anonymous": false,
      "inputs": [
        {
          "indexed": true,
          "internalType": "address",
          "name": "from",
          "type": "address"
        },
        {
          "indexed": true,
          "internalType": "address",
          "name": "to",
          "type": "address"
        },
        {
          "indexed": true,
          "internalType": "uint256",
          "name": "tokenId",
          "type": "uint256"
        }
      ],
      "name": "Transfer",
      "type": "event"
    },
    {
      "inputs": [
        {
          "internalType": "uint256",
          "name": "tokenId",
          "type": "uint256"
        },
        {
          "internalType": "bool",
          "name": "_state",
          "type": "bool"
        }
      ],
      "name": "_setTokenState",
      "outputs": [],
      "stateMutability": "nonpayable",
      "type": "function"
    },
    {
      "inputs": [
        {
          "internalType": "uint256",
          "name": "",
          "type": "uint256"
        }
      ],
      "name": "_tokenStates",
      "outputs": [
        {
          "internalType": "bool",
          "name": "",
          "type": "bool"
        }
      ],
      "stateMutability": "view",
      "type": "function"
    },
    {
      "inputs": [
        {
          "internalType": "address",
          "name": "to",
          "type": "address"
        },
        {
          "internalType": "uint256",
          "name": "tokenId",
          "type": "uint256"
        }
      ],
      "name": "approve",
      "outputs": [],
      "stateMutability": "nonpayable",
      "type": "function"
    },
    {
      "inputs": [
        {
          "internalType": "address",
          "name": "owner",
          "type": "address"
        }
      ],
      "name": "balanceOf",
      "outputs": [
        {
          "internalType": "uint256",
          "name": "",
          "type": "uint256"
        }
      ],
      "stateMutability": "view",
      "type": "function"
    },
    {
      "inputs": [
        {
          "internalType": "uint256",
          "name": "tokenId",
          "type": "uint256"
        }
      ],
      "name": "getApproved",
      "outputs": [
        {
          "internalType": "address",
          "name": "",
          "type": "address"
        }
      ],
      "stateMutability": "view",
      "type": "function"
    },
    {
      "inputs": [
        {
          "internalType": "address",
          "name": "owner",
          "type": "address"
        },
        {
          "internalType": "address",
          "name": "operator",
          "type": "address"
        }
      ],
      "name": "isApprovedForAll",
      "outputs": [
        {
          "internalType": "bool",
          "name": "",
          "type": "bool"
        }
      ],
      "stateMutability": "view",
      "type": "function"
    },
    {
      "inputs": [
        {
          "internalType": "string",
          "name": "_tokenURI",
          "type": "string"
        }
      ],
      "name": "mint",
      "outputs": [
        {
          "internalType": "uint256",
          "name": "",
          "type": "uint256"
        }
      ],
      "stateMutability": "nonpayable",
      "type": "function"
    },
    {
      "inputs": [],
      "name": "name",
      "outputs": [
        {
          "internalType": "string",
          "name": "",
          "type": "string"
        }
      ],
      "stateMutability": "view",
      "type": "function"
    },
    {
      "inputs": [],
      "name": "nftCount",
      "outputs": [
        {
          "internalType": "uint256",
          "name": "",
          "type": "uint256"
        }
      ],
      "stateMutability": "view",
      "type": "function"
    },
    {
      "inputs": [
        {
          "internalType": "uint256",
          "name": "tokenId",
          "type": "uint256"
        }
      ],
      "name": "ownerOf",
      "outputs": [
        {
          "internalType": "address",
          "name": "",
          "type": "address"
        }
      ],
      "stateMutability": "view",
      "type": "function"
    },
    {
      "inputs": [
        {
          "internalType": "address",
          "name": "from",
          "type": "address"
        },
        {
          "internalType": "address",
          "name": "to",
          "type": "address"
        },
        {
          "internalType": "uint256",
          "name": "tokenId",
          "type": "uint256"
        }
      ],
      "name": "safeTransferFrom",
      "outputs": [],
      "stateMutability": "nonpayable",
      "type": "function"
    },
    {
      "inputs": [
        {
          "internalType": "address",
          "name": "from",
          "type": "address"
        },
        {
          "internalType": "address",
          "name": "to",
          "type": "address"
        },
        {
          "internalType": "uint256",
          "name": "tokenId",
          "type": "uint256"
        },
        {
          "internalType": "bytes",
          "name": "_data",
          "type": "bytes"
        }
      ],
      "name": "safeTransferFrom",
      "outputs": [],
      "stateMutability": "nonpayable",
      "type": "function"
    },
    {
      "inputs": [
        {
          "internalType": "address",
          "name": "operator",
          "type": "address"
        },
        {
          "internalType": "bool",
          "name": "approved",
          "type": "bool"
        }
      ],
      "name": "setApprovalForAll",
      "outputs": [],
      "stateMutability": "nonpayable",
      "type": "function"
    },
    {
      "inputs": [
        {
          "internalType": "bytes4",
          "name": "interfaceId",
          "type": "bytes4"
        }
      ],
      "name": "supportsInterface",
      "outputs": [
        {
          "internalType": "bool",
          "name": "",
          "type": "bool"
        }
      ],
      "stateMutability": "view",
      "type": "function"
    },
    {
      "inputs": [],
      "name": "symbol",
      "outputs": [
        {
          "internalType": "string",
          "name": "",
          "type": "string"
        }
      ],
      "stateMutability": "view",
      "type": "function"
    },
    {
      "inputs": [
        {
          "internalType": "uint256",
          "name": "tokenId",
          "type": "uint256"
        }
      ],
      "name": "tokenURI",
      "outputs": [
        {
          "internalType": "string",
          "name": "",
          "type": "string"
        }
      ],
      "stateMutability": "view",
      "type": "function"
    },
    {
      "inputs": [
        {
          "internalType": "address",
          "name": "from",
          "type": "address"
        },
        {
          "internalType": "address",
          "name": "to",
          "type": "address"
        },
        {
          "internalType": "uint256",
          "name": "tokenId",
          "type": "uint256"
        }
      ],
      "name": "transferFrom",
      "outputs": [],
      "stateMutability": "nonpayable",
      "type": "function"
    }
  ],
  "bytecode": "0x60806040523480156200001157600080fd5b506040518060400160405280600881526020017f44417070204e46540000000000000000000000000000000000000000000000008152506040518060400160405280600481526020017f4441505000000000000000000000000000000000000000000000000000000000815250816000908051906020019062000096929190620000b8565b508060019080519060200190620000af929190620000b8565b505050620001cd565b828054620000c69062000168565b90600052602060002090601f016020900481019282620000ea576000855562000136565b82601f106200010557805160ff191683800117855562000136565b8280016001018555821562000136579182015b828111156200013557825182559160200191906001019062000118565b5b50905062000145919062000149565b5090565b5b80821115620001645760008160009055506001016200014a565b5090565b600060028204905060018216806200018157607f821691505b602082108114156200019857620001976200019e565b5b50919050565b7f4e487b7100000000000000000000000000000000000000000000000000000000600052602260045260246000fd5b612df680620001dd6000396000f3fe608060405234801561001057600080fd5b506004361061010b5760003560e01c806370a08231116100a2578063abe62b4511610071578063abe62b45146102b6578063b88d4fde146102e6578063c87b56dd14610302578063d85d3d2714610332578063e985e9c5146103625761010b565b806370a08231146102305780637268345f1461026057806395d89b411461027c578063a22cb4651461029a5761010b565b80630af2c6ca116100de5780630af2c6ca146101aa57806323b872dd146101c857806342842e0e146101e45780636352211e146102005761010b565b806301ffc9a71461011057806306fdde0314610140578063081812fc1461015e578063095ea7b31461018e575b600080fd5b61012a60048036038101906101259190611d94565b610392565b604051610137919061223a565b60405180910390f35b610148610474565b6040516101559190612255565b60405180910390f35b61017860048036038101906101739190611e27565b610506565b60405161018591906121d3565b60405180910390f35b6101a860048036038101906101a39190611d58565b61058b565b005b6101b26106a3565b6040516101bf9190612497565b60405180910390f35b6101e260048036038101906101dd9190611c52565b6106a9565b005b6101fe60048036038101906101f99190611c52565b610709565b005b61021a60048036038101906102159190611e27565b610729565b60405161022791906121d3565b60405180910390f35b61024a60048036038101906102459190611bed565b6107db565b6040516102579190612497565b60405180910390f35b61027a60048036038101906102759190611e50565b610893565b005b61028461092a565b6040516102919190612255565b60405180910390f35b6102b460048036038101906102af9190611d1c565b6109bc565b005b6102d060048036038101906102cb9190611e27565b6109d2565b6040516102dd919061223a565b60405180910390f35b61030060048036038101906102fb9190611ca1565b6109f2565b005b61031c60048036038101906103179190611e27565b610a54565b6040516103299190612255565b60405180910390f35b61034c60048036038101906103479190611de6565b610ba6565b6040516103599190612497565b60405180910390f35b61037c60048036038101906103779190611c16565b610be2565b604051610389919061223a565b60405180910390f35b60007f80ac58cd000000000000000000000000000000000000000000000000000000007bffffffffffffffffffffffffffffffffffffffffffffffffffffffff1916827bffffffffffffffffffffffffffffffffffffffffffffffffffffffff1916148061045d57507f5b5e139f000000000000000000000000000000000000000000000000000000007bffffffffffffffffffffffffffffffffffffffffffffffffffffffff1916827bffffffffffffffffffffffffffffffffffffffffffffffffffffffff1916145b8061046d575061046c82610c76565b5b9050919050565b606060008054610483906126ed565b80601f01602080910402602001604051908101604052809291908181526020018280546104af906126ed565b80156104fc5780601f106104d1576101008083540402835291602001916104fc565b820191906000526020600020905b8154815290600101906020018083116104df57829003601f168201915b5050505050905090565b600061051182610ce0565b610550576040517f08c379a0000000000000000000000000000000000000000000000000000000008152600401610547906123f7565b60405180910390fd5b6004600083815260200190815260200160002060009054906101000a900473ffffffffffffffffffffffffffffffffffffffff169050919050565b600061059682610729565b90508073ffffffffffffffffffffffffffffffffffffffff168373ffffffffffffffffffffffffffffffffffffffff161415610607576040517f08c379a00000000000000000000000000000000000000000000000000000000081526004016105fe90612457565b60405180910390fd5b8073ffffffffffffffffffffffffffffffffffffffff16610626610d4c565b73ffffffffffffffffffffffffffffffffffffffff16148061065557506106548161064f610d4c565b610be2565b5b610694576040517f08c379a000000000000000000000000000000000000000000000000000000000815260040161068b90612337565b60405180910390fd5b61069e8383610d54565b505050565b60075481565b6106ba6106b4610d4c565b82610e0d565b6106f9576040517f08c379a00000000000000000000000000000000000000000000000000000000081526004016106f090612477565b60405180910390fd5b610704838383610eeb565b505050565b610724838383604051806020016040528060008152506109f2565b505050565b6000806002600084815260200190815260200160002060009054906101000a900473ffffffffffffffffffffffffffffffffffffffff169050600073ffffffffffffffffffffffffffffffffffffffff168173ffffffffffffffffffffffffffffffffffffffff1614156107d2576040517f08c379a00000000000000000000000000000000000000000000000000000000081526004016107c990612377565b60405180910390fd5b80915050919050565b60008073ffffffffffffffffffffffffffffffffffffffff168273ffffffffffffffffffffffffffffffffffffffff16141561084c576040517f08c379a000000000000000000000000000000000000000000000000000000000815260040161084390612357565b60405180910390fd5b600360008373ffffffffffffffffffffffffffffffffffffffff1673ffffffffffffffffffffffffffffffffffffffff168152602001908152602001600020549050919050565b61089c82610ce0565b6108db576040517f08c379a00000000000000000000000000000000000000000000000000000000081526004016108d290612417565b60405180910390fd5b6001151581151514806108f2575060001515811515145b6108fb57600080fd5b806008600084815260200190815260200160002060006101000a81548160ff0219169083151502179055505050565b606060018054610939906126ed565b80601f0160208091040260200160405190810160405280929190818152602001828054610965906126ed565b80156109b25780601f10610987576101008083540402835291602001916109b2565b820191906000526020600020905b81548152906001019060200180831161099557829003601f168201915b5050505050905090565b6109ce6109c7610d4c565b8383611152565b5050565b60086020528060005260406000206000915054906101000a900460ff1681565b610a036109fd610d4c565b83610e0d565b610a42576040517f08c379a0000000000000000000000000000000000000000000000000000000008152600401610a3990612477565b60405180910390fd5b610a4e848484846112bf565b50505050565b6060610a5f82610ce0565b610a9e576040517f08c379a0000000000000000000000000000000000000000000000000000000008152600401610a95906123d7565b60405180910390fd5b6000600660008481526020019081526020016000208054610abe906126ed565b80601f0160208091040260200160405190810160405280929190818152602001828054610aea906126ed565b8015610b375780601f10610b0c57610100808354040283529160200191610b37565b820191906000526020600020905b815481529060010190602001808311610b1a57829003601f168201915b505050505090506000610b4861131b565b9050600081511415610b5e578192505050610ba1565b600082511115610b93578082604051602001610b7b9291906121af565b60405160208183030381529060405292505050610ba1565b610b9c84611332565b925050505b919050565b600060076000815480929190610bbb90612750565b9190505550610bcc336007546113d9565b610bd8600754836113f7565b6007549050919050565b6000600560008473ffffffffffffffffffffffffffffffffffffffff1673ffffffffffffffffffffffffffffffffffffffff16815260200190815260200160002060008373ffffffffffffffffffffffffffffffffffffffff1673ffffffffffffffffffffffffffffffffffffffff16815260200190815260200160002060009054906101000a900460ff16905092915050565b60007f01ffc9a7000000000000000000000000000000000000000000000000000000007bffffffffffffffffffffffffffffffffffffffffffffffffffffffff1916827bffffffffffffffffffffffffffffffffffffffffffffffffffffffff1916149050919050565b60008073ffffffffffffffffffffffffffffffffffffffff166002600084815260200190815260200160002060009054906101000a900473ffffffffffffffffffffffffffffffffffffffff1673ffffffffffffffffffffffffffffffffffffffff1614159050919050565b600033905090565b816004600083815260200190815260200160002060006101000a81548173ffffffffffffffffffffffffffffffffffffffff021916908373ffffffffffffffffffffffffffffffffffffffff160217905550808273ffffffffffffffffffffffffffffffffffffffff16610dc783610729565b73ffffffffffffffffffffffffffffffffffffffff167f8c5be1e5ebec7d5bd14f71427d1e84f3dd0314c0f7b2291e5b200ac8c7c3b92560405160405180910390a45050565b6000610e1882610ce0565b610e57576040517f08c379a0000000000000000000000000000000000000000000000000000000008152600401610e4e90612317565b60405180910390fd5b6000610e6283610729565b90508073ffffffffffffffffffffffffffffffffffffffff168473ffffffffffffffffffffffffffffffffffffffff161480610ed157508373ffffffffffffffffffffffffffffffffffffffff16610eb984610506565b73ffffffffffffffffffffffffffffffffffffffff16145b80610ee25750610ee18185610be2565b5b91505092915050565b8273ffffffffffffffffffffffffffffffffffffffff16610f0b82610729565b73ffffffffffffffffffffffffffffffffffffffff1614610f61576040517f08c379a0000000000000000000000000000000000000000000000000000000008152600401610f5890612297565b60405180910390fd5b600073ffffffffffffffffffffffffffffffffffffffff168273ffffffffffffffffffffffffffffffffffffffff161415610fd1576040517f08c379a0000000000000000000000000000000000000000000000000000000008152600401610fc8906122d7565b60405180910390fd5b610fdc83838361146b565b610fe7600082610d54565b6001600360008573ffffffffffffffffffffffffffffffffffffffff1673ffffffffffffffffffffffffffffffffffffffff16815260200190815260200160002060008282546110379190612603565b925050819055506001600360008473ffffffffffffffffffffffffffffffffffffffff1673ffffffffffffffffffffffffffffffffffffffff168152602001908152602001600020600082825461108e919061257c565b92505081905550816002600083815260200190815260200160002060006101000a81548173ffffffffffffffffffffffffffffffffffffffff021916908373ffffffffffffffffffffffffffffffffffffffff160217905550808273ffffffffffffffffffffffffffffffffffffffff168473ffffffffffffffffffffffffffffffffffffffff167fddf252ad1be2c89b69c2b068fc378daa952ba7f163c4a11628f55a4df523b3ef60405160405180910390a461114d838383611470565b505050565b8173ffffffffffffffffffffffffffffffffffffffff168373ffffffffffffffffffffffffffffffffffffffff1614156111c1576040517f08c379a00000000000000000000000000000000000000000000000000000000081526004016111b8906122f7565b60405180910390fd5b80600560008573ffffffffffffffffffffffffffffffffffffffff1673ffffffffffffffffffffffffffffffffffffffff16815260200190815260200160002060008473ffffffffffffffffffffffffffffffffffffffff1673ffffffffffffffffffffffffffffffffffffffff16815260200190815260200160002060006101000a81548160ff0219169083151502179055508173ffffffffffffffffffffffffffffffffffffffff168373ffffffffffffffffffffffffffffffffffffffff167f17307eab39ab6107e8899845ad3d59bd9653f200f220920489ca2b5937696c31836040516112b2919061223a565b60405180910390a3505050565b6112ca848484610eeb565b6112d684848484611475565b611315576040517f08c379a000000000000000000000000000000000000000000000000000000000815260040161130c90612277565b60405180910390fd5b50505050565b606060405180602001604052806000815250905090565b606061133d82610ce0565b61137c576040517f08c379a000000000000000000000000000000000000000000000000000000000815260040161137390612437565b60405180910390fd5b600061138661131b565b905060008151116113a657604051806020016040528060008152506113d1565b806113b08461160c565b6040516020016113c19291906121af565b6040516020818303038152906040525b915050919050565b6113f38282604051806020016040528060008152506117b9565b5050565b61140082610ce0565b61143f576040517f08c379a000000000000000000000000000000000000000000000000000000000815260040161143690612397565b60405180910390fd5b80600660008481526020019081526020016000209080519060200190611466929190611a11565b505050565b505050565b505050565b60006114968473ffffffffffffffffffffffffffffffffffffffff16611814565b156115ff578373ffffffffffffffffffffffffffffffffffffffff1663150b7a026114bf610d4c565b8786866040518563ffffffff1660e01b81526004016114e194939291906121ee565b602060405180830381600087803b1580156114fb57600080fd5b505af192505050801561152c57506040513d601f19601f820116820180604052508101906115299190611dbd565b60015b6115af573d806000811461155c576040519150601f19603f3d011682016040523d82523d6000602084013e611561565b606091505b506000815114156115a7576040517f08c379a000000000000000000000000000000000000000000000000000000000815260040161159e90612277565b60405180910390fd5b805181602001fd5b63150b7a0260e01b7bffffffffffffffffffffffffffffffffffffffffffffffffffffffff1916817bffffffffffffffffffffffffffffffffffffffffffffffffffffffff191614915050611604565b600190505b949350505050565b60606000821415611654576040518060400160405280600181526020017f300000000000000000000000000000000000000000000000000000000000000081525090506117b4565b600082905060005b6000821461168657808061166f90612750565b915050600a8261167f91906125d2565b915061165c565b60008167ffffffffffffffff8111156116c8577f4e487b7100000000000000000000000000000000000000000000000000000000600052604160045260246000fd5b6040519080825280601f01601f1916602001820160405280156116fa5781602001600182028036833780820191505090505b5090505b600085146117ad576001826117139190612603565b9150600a856117229190612799565b603061172e919061257c565b60f81b81838151811061176a577f4e487b7100000000000000000000000000000000000000000000000000000000600052603260045260246000fd5b60200101907effffffffffffffffffffffffffffffffffffffffffffffffffffffffffffff1916908160001a905350600a856117a691906125d2565b94506116fe565b8093505050505b919050565b6117c38383611837565b6117d06000848484611475565b61180f576040517f08c379a000000000000000000000000000000000000000000000000000000000815260040161180690612277565b60405180910390fd5b505050565b6000808273ffffffffffffffffffffffffffffffffffffffff163b119050919050565b600073ffffffffffffffffffffffffffffffffffffffff168273ffffffffffffffffffffffffffffffffffffffff1614156118a7576040517f08c379a000000000000000000000000000000000000000000000000000000000815260040161189e906123b7565b60405180910390fd5b6118b081610ce0565b156118f0576040517f08c379a00000000000000000000000000000000000000000000000000000000081526004016118e7906122b7565b60405180910390fd5b6118fc6000838361146b565b6001600360008473ffffffffffffffffffffffffffffffffffffffff1673ffffffffffffffffffffffffffffffffffffffff168152602001908152602001600020600082825461194c919061257c565b92505081905550816002600083815260200190815260200160002060006101000a81548173ffffffffffffffffffffffffffffffffffffffff021916908373ffffffffffffffffffffffffffffffffffffffff160217905550808273ffffffffffffffffffffffffffffffffffffffff16600073ffffffffffffffffffffffffffffffffffffffff167fddf252ad1be2c89b69c2b068fc378daa952ba7f163c4a11628f55a4df523b3ef60405160405180910390a4611a0d60008383611470565b5050565b828054611a1d906126ed565b90600052602060002090601f016020900481019282611a3f5760008555611a86565b82601f10611a5857805160ff1916838001178555611a86565b82800160010185558215611a86579182015b82811115611a85578251825591602001919060010190611a6a565b5b509050611a939190611a97565b5090565b5b80821115611ab0576000816000905550600101611a98565b5090565b6000611ac7611ac2846124d7565b6124b2565b905082815260208101848484011115611adf57600080fd5b611aea8482856126ab565b509392505050565b6000611b05611b0084612508565b6124b2565b905082815260208101848484011115611b1d57600080fd5b611b288482856126ab565b509392505050565b600081359050611b3f81612d64565b92915050565b600081359050611b5481612d7b565b92915050565b600081359050611b6981612d92565b92915050565b600081519050611b7e81612d92565b92915050565b600082601f830112611b9557600080fd5b8135611ba5848260208601611ab4565b91505092915050565b600082601f830112611bbf57600080fd5b8135611bcf848260208601611af2565b91505092915050565b600081359050611be781612da9565b92915050565b600060208284031215611bff57600080fd5b6000611c0d84828501611b30565b91505092915050565b60008060408385031215611c2957600080fd5b6000611c3785828601611b30565b9250506020611c4885828601611b30565b9150509250929050565b600080600060608486031215611c6757600080fd5b6000611c7586828701611b30565b9350506020611c8686828701611b30565b9250506040611c9786828701611bd8565b9150509250925092565b60008060008060808587031215611cb757600080fd5b6000611cc587828801611b30565b9450506020611cd687828801611b30565b9350506040611ce787828801611bd8565b925050606085013567ffffffffffffffff811115611d0457600080fd5b611d1087828801611b84565b91505092959194509250565b60008060408385031215611d2f57600080fd5b6000611d3d85828601611b30565b9250506020611d4e85828601611b45565b9150509250929050565b60008060408385031215611d6b57600080fd5b6000611d7985828601611b30565b9250506020611d8a85828601611bd8565b9150509250929050565b600060208284031215611da657600080fd5b6000611db484828501611b5a565b91505092915050565b600060208284031215611dcf57600080fd5b6000611ddd84828501611b6f565b91505092915050565b600060208284031215611df857600080fd5b600082013567ffffffffffffffff811115611e1257600080fd5b611e1e84828501611bae565b91505092915050565b600060208284031215611e3957600080fd5b6000611e4784828501611bd8565b91505092915050565b60008060408385031215611e6357600080fd5b6000611e7185828601611bd8565b9250506020611e8285828601611b45565b9150509250929050565b611e9581612637565b82525050565b611ea481612649565b82525050565b6000611eb582612539565b611ebf818561254f565b9350611ecf8185602086016126ba565b611ed881612886565b840191505092915050565b6000611eee82612544565b611ef88185612560565b9350611f088185602086016126ba565b611f1181612886565b840191505092915050565b6000611f2782612544565b611f318185612571565b9350611f418185602086016126ba565b80840191505092915050565b6000611f5a603283612560565b9150611f6582612897565b604082019050919050565b6000611f7d602583612560565b9150611f88826128e6565b604082019050919050565b6000611fa0601c83612560565b9150611fab82612935565b602082019050919050565b6000611fc3602483612560565b9150611fce8261295e565b604082019050919050565b6000611fe6601983612560565b9150611ff1826129ad565b602082019050919050565b6000612009602c83612560565b9150612014826129d6565b604082019050919050565b600061202c603883612560565b915061203782612a25565b604082019050919050565b600061204f602a83612560565b915061205a82612a74565b604082019050919050565b6000612072602983612560565b915061207d82612ac3565b604082019050919050565b6000612095602e83612560565b91506120a082612b12565b604082019050919050565b60006120b8602083612560565b91506120c382612b61565b602082019050919050565b60006120db603183612560565b91506120e682612b8a565b604082019050919050565b60006120fe602c83612560565b915061210982612bd9565b604082019050919050565b6000612121603083612560565b915061212c82612c28565b604082019050919050565b6000612144602f83612560565b915061214f82612c77565b604082019050919050565b6000612167602183612560565b915061217282612cc6565b604082019050919050565b600061218a603183612560565b915061219582612d15565b604082019050919050565b6121a9816126a1565b82525050565b60006121bb8285611f1c565b91506121c78284611f1c565b91508190509392505050565b60006020820190506121e86000830184611e8c565b92915050565b60006080820190506122036000830187611e8c565b6122106020830186611e8c565b61221d60408301856121a0565b818103606083015261222f8184611eaa565b905095945050505050565b600060208201905061224f6000830184611e9b565b92915050565b6000602082019050818103600083015261226f8184611ee3565b905092915050565b6000602082019050818103600083015261229081611f4d565b9050919050565b600060208201905081810360008301526122b081611f70565b9050919050565b600060208201905081810360008301526122d081611f93565b9050919050565b600060208201905081810360008301526122f081611fb6565b9050919050565b6000602082019050818103600083015261231081611fd9565b9050919050565b6000602082019050818103600083015261233081611ffc565b9050919050565b600060208201905081810360008301526123508161201f565b9050919050565b6000602082019050818103600083015261237081612042565b9050919050565b6000602082019050818103600083015261239081612065565b9050919050565b600060208201905081810360008301526123b081612088565b9050919050565b600060208201905081810360008301526123d0816120ab565b9050919050565b600060208201905081810360008301526123f0816120ce565b9050919050565b60006020820190508181036000830152612410816120f1565b9050919050565b6000602082019050818103600083015261243081612114565b9050919050565b6000602082019050818103600083015261245081612137565b9050919050565b600060208201905081810360008301526124708161215a565b9050919050565b600060208201905081810360008301526124908161217d565b9050919050565b60006020820190506124ac60008301846121a0565b92915050565b60006124bc6124cd565b90506124c8828261271f565b919050565b6000604051905090565b600067ffffffffffffffff8211156124f2576124f1612857565b5b6124fb82612886565b9050602081019050919050565b600067ffffffffffffffff82111561252357612522612857565b5b61252c82612886565b9050602081019050919050565b600081519050919050565b600081519050919050565b600082825260208201905092915050565b600082825260208201905092915050565b600081905092915050565b6000612587826126a1565b9150612592836126a1565b9250827fffffffffffffffffffffffffffffffffffffffffffffffffffffffffffffffff038211156125c7576125c66127ca565b5b828201905092915050565b60006125dd826126a1565b91506125e8836126a1565b9250826125f8576125f76127f9565b5b828204905092915050565b600061260e826126a1565b9150612619836126a1565b92508282101561262c5761262b6127ca565b5b828203905092915050565b600061264282612681565b9050919050565b60008115159050919050565b60007fffffffff0000000000000000000000000000000000000000000000000000000082169050919050565b600073ffffffffffffffffffffffffffffffffffffffff82169050919050565b6000819050919050565b82818337600083830152505050565b60005b838110156126d85780820151818401526020810190506126bd565b838111156126e7576000848401525b50505050565b6000600282049050600182168061270557607f821691505b6020821081141561271957612718612828565b5b50919050565b61272882612886565b810181811067ffffffffffffffff8211171561274757612746612857565b5b80604052505050565b600061275b826126a1565b91507fffffffffffffffffffffffffffffffffffffffffffffffffffffffffffffffff82141561278e5761278d6127ca565b5b600182019050919050565b60006127a4826126a1565b91506127af836126a1565b9250826127bf576127be6127f9565b5b828206905092915050565b7f4e487b7100000000000000000000000000000000000000000000000000000000600052601160045260246000fd5b7f4e487b7100000000000000000000000000000000000000000000000000000000600052601260045260246000fd5b7f4e487b7100000000000000000000000000000000000000000000000000000000600052602260045260246000fd5b7f4e487b7100000000000000000000000000000000000000000000000000000000600052604160045260246000fd5b6000601f19601f8301169050919050565b7f4552433732313a207472616e7366657220746f206e6f6e20455243373231526560008201527f63656976657220696d706c656d656e7465720000000000000000000000000000602082015250565b7f4552433732313a207472616e736665722066726f6d20696e636f72726563742060008201527f6f776e6572000000000000000000000000000000000000000000000000000000602082015250565b7f4552433732313a20746f6b656e20616c7265616479206d696e74656400000000600082015250565b7f4552433732313a207472616e7366657220746f20746865207a65726f2061646460008201527f7265737300000000000000000000000000000000000000000000000000000000602082015250565b7f4552433732313a20617070726f766520746f2063616c6c657200000000000000600082015250565b7f4552433732313a206f70657261746f7220717565727920666f72206e6f6e657860008201527f697374656e7420746f6b656e0000000000000000000000000000000000000000602082015250565b7f4552433732313a20617070726f76652063616c6c6572206973206e6f74206f7760008201527f6e6572206e6f7220617070726f76656420666f7220616c6c0000000000000000602082015250565b7f4552433732313a2062616c616e636520717565727920666f7220746865207a6560008201527f726f206164647265737300000000000000000000000000000000000000000000602082015250565b7f4552433732313a206f776e657220717565727920666f72206e6f6e657869737460008201527f656e7420746f6b656e0000000000000000000000000000000000000000000000602082015250565b7f45524337323155524953746f726167653a2055524920736574206f66206e6f6e60008201527f6578697374656e7420746f6b656e000000000000000000000000000000000000602082015250565b7f4552433732313a206d696e7420746f20746865207a65726f2061646472657373600082015250565b7f45524337323155524953746f726167653a2055524920717565727920666f722060008201527f6e6f6e6578697374656e7420746f6b656e000000000000000000000000000000602082015250565b7f4552433732313a20617070726f76656420717565727920666f72206e6f6e657860008201527f697374656e7420746f6b656e0000000000000000000000000000000000000000602082015250565b7f45524337323155524953746f726167653a20537461746520736574206f66206e60008201527f6f6e6578697374656e7420746f6b656e00000000000000000000000000000000602082015250565b7f4552433732314d657461646174613a2055524920717565727920666f72206e6f60008201527f6e6578697374656e7420746f6b656e0000000000000000000000000000000000602082015250565b7f4552433732313a20617070726f76616c20746f2063757272656e74206f776e6560008201527f7200000000000000000000000000000000000000000000000000000000000000602082015250565b7f4552433732313a207472616e736665722063616c6c6572206973206e6f74206f60008201527f776e6572206e6f7220617070726f766564000000000000000000000000000000602082015250565b612d6d81612637565b8114612d7857600080fd5b50565b612d8481612649565b8114612d8f57600080fd5b50565b612d9b81612655565b8114612da657600080fd5b50565b612db2816126a1565b8114612dbd57600080fd5b5056fea264697066735822122045458713608c86d1591605a887c5aee01b6ea948da3c3d332120b5df5074806264736f6c63430008040033",
  "linkReferences": {},
  "deployedLinkReferences": {}
}